{
    "contractName": "TodoList",
    "abi": [
        {
            "constant": true,
            "inputs": [
                {
                    "name": "",
                    "type": "uint256"
                }
            ],
            "name": "todoItems",
            "outputs": [
                {
                    "name": "value",
                    "type": "uint256"
                },
                {
                    "name": "active",
                    "type": "bool"
                }
            ],
            "payable": false,
            "stateMutability": "view",
            "type": "function"
        },
        {
            "constant": false,
            "inputs": [
                {
                    "name": "_value",
                    "type": "uint256"
                }
            ],
            "name": "addTodoItem",
            "outputs": [
                {
                    "name": "success",
                    "type": "bool"
                }
            ],
            "payable": false,
            "stateMutability": "nonpayable",
            "type": "function"
        },
        {
            "constant": true,
            "inputs": [],
            "name": "getTodoItems",
            "outputs": [
                {
                    "name": "",
                    "type": "uint256[]"
                },
                {
                    "name": "",
                    "type": "bool[]"
                }
            ],
            "payable": false,
            "stateMutability": "view",
            "type": "function"
        },
        {
            "constant": false,
            "inputs": [
                {
                    "name": "index",
                    "type": "uint256"
                }
            ],
            "name": "deleteTodoItem",
            "outputs": [
                {
                    "name": "success",
                    "type": "bool"
                }
            ],
            "payable": false,
            "stateMutability": "nonpayable",
            "type": "function"
        }
    ],
    "bytecode": "0x608060405234801561001057600080fd5b506105ad806100206000396000f300608060405260043610610062576000357c0100000000000000000000000000000000000000000000000000000000900463ffffffff16806312f616a2146100675780633b73a192146100ac578063c627e61014610160578063fea2c776146101ac575b600080fd5b34801561007357600080fd5b50610092600480360381019080803590602001909291905050506101f1565b604051808215151515815260200191505060405180910390f35b3480156100b857600080fd5b506100c1610304565b604051808060200180602001838103835285818151815260200191508051906020019060200280838360005b838110156101085780820151818401526020810190506100ed565b50505050905001838103825284818151815260200191508051906020019060200280838360005b8381101561014a57808201518184015260208101905061012f565b5050505090500194505050505060405180910390f35b34801561016c57600080fd5b5061018b6004803603810190808035906020019092919050505061042e565b60405180838152602001821515151581526020019250505060405180910390f35b3480156101b857600080fd5b506101d76004803603810190808035906020019092919050505061046e565b604051808215151515815260200191505060405180910390f35b60008060008054905083101515610207576102fe565b8290505b60016000805490500381101561029f5760006001820181548110151561022d57fe5b906000526020600020906002020160008281548110151561024a57fe5b9060005260206000209060020201600082015481600001556001820160009054906101000a900460ff168160010160006101000a81548160ff021916908315150217905550905050808060010191505061020b565b60006001600080549050038154811015156102b657fe5b90600052602060002090600202016000808201600090556001820160006101000a81549060ff0219169055505060008054809190600190036102f891906104f8565b50600191505b50919050565b6060806000606080600080805490509350836040519080825280602002602001820160405280156103445781602001602082028038833980820191505090505b509250836040519080825280602002602001820160405280156103765781602001602082028038833980820191505090505b509150600090505b838110156104205760008181548110151561039557fe5b90600052602060002090600202016000015483828151811015156103b557fe5b90602001906020020181815250506000818154811015156103d257fe5b906000526020600020906002020160010160009054906101000a900460ff1682828151811015156103ff57fe5b9060200190602002019015159081151581525050808060010191505061037e565b828295509550505050509091565b60008181548110151561043d57fe5b90600052602060002090600202016000915090508060000154908060010160009054906101000a900460ff16905082565b600061047861052a565b828160000181815250506000816020019015159081151581525050600081908060018154018082558091505090600182039060005260206000209060020201600090919290919091506000820151816000015560208201518160010160006101000a81548160ff0219169083151502179055505050506001915050919050565b815481835581811115610525576002028160020283600052602060002091820191016105249190610546565b5b505050565b6040805190810160405280600081526020016000151581525090565b61057e91905b8082111561057a576000808201600090556001820160006101000a81549060ff02191690555060020161054c565b5090565b905600a165627a7a72305820be15cc4729c02a477ecc7b104f59cabe765e29344d4df3d8f0377c4998460dda0029",
    "source": "pragma solidity ^0.4.2;\n\ncontract TodoList {\n  TodoItem[] public todoItems;\n\n  struct TodoItem {\n    uint value;\n    bool active;\n  }\n\n  function addTodoItem(uint _value) public returns (bool success) {\n    TodoItem memory todoItem;\n    todoItem.value = _value;\n    todoItem.active = false;\n\n    todoItems.push(todoItem);\n    return true;\n  }\n\n  function getTodoItems() public constant returns (uint[], bool[]) {\n    uint length = todoItems.length;\n\n    uint[] memory values = new uint[](length);\n    bool[] memory actives = new bool[](length);\n\n    for (uint i = 0; i < length; i++) {\n      values[i] = todoItems[i].value;\n      actives[i] = todoItems[i].active;\n    }\n\n    return (values, actives);\n  }\n\n  function deleteTodoItem(uint index) public returns (bool success) {\n    if (index >= todoItems.length) return;\n\n    for (uint i = index; i < todoItems.length - 1; i++){\n        todoItems[i] = todoItems[i+1];\n    }\n\n    delete todoItems[todoItems.length - 1];\n    todoItems.length--;\n    return true;\n  }\n}",
    "sourcePath": "/Users/nolan/Documents/workmeta/tron_boilerplate/contracts/TodoList.sol",
    "compiler": {
        "name": "solc",
        "version": "0.4.24-develop.2018.8.28+commit.3ba0cdec.mod.Emscripten.clang"
    },
    "schemaVersion": "2.0.1",
    "updatedAt": "2019-01-11T13:05:53.169Z"
}